:1000000067C081C080C07FC07EC07DC07CC07BC017
:100010007AC079C078C042C176C075C074C073C060
:1000200072C071C070C08AC38BC38CC38DC38EC3B2
:100030008FC390C391C392C393C39BC39CC39DC3FF
:100040009EC39FC3A0C3A1C3A2C3A3C3A4C307638A
:100050004236B79BD8A71A39685618AEBAAB558C3A
:100060001D3CB7CC5763BD6DEDFD753EF617723183
:10007000BF000000803F08000000BE922449123EED
:10008000ABAAAA2ABECDCCCC4C3E00000080BEABB1
:10009000AAAAAA3E00000000BF000000803F0000A6
:1000A000000000084178D3BB4387D1133D190E3CB3
:1000B000C3BD4282AD2B3E68EC8276BED98FE1A9EA
:1000C0003E4C80EFFFBE01C4FF7F3F0000000000F8
:1000D00011241FBECFE5D4E0DEBFCDBF10E0A0E607
:1000E000B0E0E6ECFFE002C005900D92A439B10744
:1000F000D9F710E0A4E9B0E001C01D92A539B1071D
:10010000E1F7F4D05EC77CCF80E487B986E886B992
:100110000895349BFECF349A84B195B10895369AF0
:100120000895C298929892B324E0629FB00111247E
:10013000962B92BB939A92B39F7092BB22B330E1FD
:10014000839FC0011124282B22BB8FE99FE00197D8
:10015000F1F700C0000093980895C0988FE99CE8DB
:100160000197F1F700C0000060E083E0DADF8FE084
:1001700097E20197F1F700C0000060E083E0D1DF73
:100180008FEC97E00197F1F700C0000060E083E09A
:10019000C8DF60E082E0C5DF60E082E0C2DF60E0EF
:1001A00088E0BFDF60E080E0BCDF60E08FE0B9DFC7
:1001B00060E080E0B6DF60E081E0B3DF60E080E037
:1001C000B0DF60E086E0ADCF60E080E0AADF60E015
:1001D00081E0A7CF0895CF93C82F862F880F880F6F
:1001E00060E08C5F9EDF60E08FEF8C0FCF9199CF46
:1001F0008FE19EE40197F1F700C0000060E08CE021
:1002000090DF60E080E08DDF8FE19EE40197F1F701
:1002100000C000000895CF93C82F61E082958F70D1
:1002200080DF61E08C2FCF917CCF1F93CF93DF9342
:10023000EC0110E0FE01E10FF11D8081882319F02F
:10024000EADF1F5FF7CFDF91CF911F910895BCDFE9
:1002500080E690E0EADF62E081E0BDDF86E690E0E4
:10026000E4DF2FEF89E698E1215080409040E1F7EC
:1002700000C00000A9DF8FE690E0D7DF62E081E0F8
:10028000AADF89E790E0D1DF2FEF89E698E12150DE
:1002900080409040E1F700C0000008951F920F9247
:1002A0000FB60F9211242F933F934F935F936F9349
:1002B0007F938F939F93AF93BF93EF93FF938CB1F3
:1002C000809394008091940073D2FF91EF91BF913D
:1002D000AF919F918F917F916F915F914F913F91DE
:1002E0002F910F900FBE0F901F901895CF93DF9313
:1002F000CDB7DEB7C35AD1090FB6F894DEBF0FBE33
:10030000CDBF8FEF87BB81BB84BB85BB47D2CE01FE
:10031000019620D1CE0188599F4FA3D12FEF80E7BE
:1003200092E0215080409040E1F700C0000083E857
:1003300090E042D23BD2789410E080E0F894909123
:100340009400191719F01091940082E07894882392
:10035000A9F3BE016F5F7F4F812FC6D0BE016859E0
:100360007F4FCE010196FBD0BC01CE0188599F4F33
:10037000CBD1E3CF9B0121503109DC01A60FB71F80
:10038000FC01AF01481B590B421753073CF4408155
:100390005E9151934C9321503109F3CF0895EF9220
:1003A000FF920F931F93CF93DF938B019A01FB0171
:1003B0004AE0E42EF12CEF01C01BD10B009731F085
:1003C000B70130D2805D8193CB01F5CFF801EC0FFE
:1003D000FD1F80E3C217D3071CF421968193FACF47
:1003E000BE01C801C7DFF801EC0FFD1F1082CE016E
:1003F000DF91CF911F910F91FF90EF9008952F9271
:100400003F924F925F926F927F928F929F92AF92A4
:10041000BF92CF92DF92EF92FF920F931F93CF93F1
:10042000DF936B017C01EA01890188D24B015C01F9
:1004300040E050E0BE01C401B2DF1C01011511050E
:1004400009F43FC0FE01E80FF91F8EE28083B80176
:10045000882777FD8095982FA4D29B01AC0160E09E
:1004600070E080E291E48CD32B013C01B401882739
:1004700077FD8095982F95D29B01AC01C701B601FD
:10048000F8D12FEF221A320A2C0E3D1EA301920141
:1004900014D354D2DC01CB01A801B101DF91CF917B
:1004A0001F910F91FF90EF90DF90CF90BF90AF9092
:1004B0009F908F907F906F905F904F903F902F9084
:1004C0006ECFDF91CF911F910F91FF90EF90DF9052
:1004D000CF90BF90AF909F908F907F906F905F90E4
:1004E0004F903F902F900895FB01928121E0290FBA
:1004F0002283243664F49081DB01A90FB11D139689
:100500008C9381E0890F64E681D190830895928372
:100510000895FC0182819FEF980F928397FD0BC095
:100520008181DF01A80FB11D13962C918F5F64E6C6
:100530006DD1918302C0828320E0822F0895FC0157
:10054000228112162CF42181E20FF11D838108957E
:1005500080E00895FC0112821082118208956F924A
:100560007F928F929F92AF92BF92CF92DF92EF9243
:10057000FF920F931F93CF93DF93CDB7DEB72897EA
:100580000FB6F894DEBF0FBECDBF8C015B01FC013E
:10059000828124D18EE890E00FD1F80182818930E8
:1005A0000CF446C0C801CBDF833519F0C801B1DFB8
:1005B0003FC0C801AEDF7E01F5E0EF0EF11C6E0119
:1005C00088E0C80ED11C4701C801A3DFF701819361
:1005D0007F01EC15FD05C1F71886C4019ED47C018E
:1005E000C80197DFCE0101966C014E0194E0890E9F
:1005F000911C3601C8018DDFF60181936F01E8156A
:10060000F905C1F71C82C30188D46C01C80181DFE0
:10061000C70101970F9778F4F701EE0FFF1FEE0F58
:10062000FF1FEA0DFB1DF182E082D382C28203C06C
:10063000EE24EA94FE2CC70128960FB6F894DEBF8C
:100640000FBECDBFDF91CF911F910F91FF90EF9023
:10065000DF90CF90BF90AF909F908F907F906F90E2
:10066000089520E030E0FC01318320831382128260
:100670002F5F3F4F04962F303105A9F70895EF9271
:10068000FF920F931F93CF93DF93CDB7DEB72897D9
:100690000FB6F894DEBF0FBECDBF8C017FE0E72E12
:1006A000F12C4AE050E0BE016F5F7F4FF80180817E
:1006B000918150D4CE0101967FD081E990E07CD029
:1006C0004AE050E0BE016F5F7F4FF8018281938165
:1006D00041D4CE01019670D08EE890E06DD0F1E06B
:1006E000EF1AF1080C5F1F4FE114F104D1F62896C0
:1006F0000FB6F894DEBF0FBECDBFDF91CF911F9133
:100700000F91FF90EF9008959B01215031092F30F8
:10071000310508F042C0FB01EE0FFF1FEE0FFF1F77
:10072000E80FF91F4281538141305105D9F42A3035
:10073000310590F5F901ED5EFF4F0994AD9A2CC09B
:10074000AC9A2AC0AA9A28C0A99A26C0A89A24C0FE
:10075000C59A22C0C49A20C0C39A1EC0C29A1CC0A7
:10076000C19A1AC02A303105B8F4F901E35EFF4F8F
:100770000994AD9811C0AC980FC0AA980DC0A99863
:100780000BC0A89809C0C59807C0C49805C0C398F5
:1007900003C0C29801C0C19872CF0895599A88E1E8
:1007A0008AB983E389B988E089B90895579A089589
:1007B0005D9BFECF8CB908951F93CF93DF93EC011F
:1007C00010E0FE01E10FF11D8081882319F0F0DFB8
:1007D0001F5FF7CFDF91CF911F910895CF93DF93E4
:1007E00000D01F92CDB7DEB74AE050E0BE016F5F88
:1007F0007F4F992787FD9095ADD3CE010196DCDF21
:100800000F900F900F90DF91CF910895991B79E091
:1008100004C0991F961708F0961B881F7A95C9F790
:100820008095089597FB072E16F4009406D077FD67
:1008300008D00BD007FC05D03EF4909581959F4FD2
:100840000895709561957F4F0895AA1BBB1B51E1D8
:1008500007C0AA1FBB1FA617B70710F0A61BB70B30
:10086000881F991F5A95A9F780959095BC01CD01D5
:1008700008955058BB27AA270ED0E5C0D6D030F037
:10088000DBD020F031F49F3F11F41EF4CBC00EF406
:10089000E095E7FBC1C0E92FE7D080F3BA17620704
:1008A00073078407950718F071F49EF5FFC00EF4E6
:1008B000E0950B2EBA2FA02D0B01B90190010C0170
:1008C000CA01A0011124FF27591B99F0593F50F488
:1008D000503E68F11A16F040A22F232F342F4427E0
:1008E000585FF3CF469537952795A795F0405395D8
:1008F000C9F77EF41F16BA0B620B730B840BBAF0A8
:100900009150A1F0FF0FBB1F661F771F881FC2F712
:100910000EC0BA0F621F731F841F48F48795779526
:100920006795B795F7959E3F08F0B3CF9395880FDD
:1009300008F09927EE0F97958795089504D068944D
:10094000B111B5C0089598D088F09F5790F0B92F95
:100950009927B751A0F0D1F0660F771F881F991F14
:100960001AF0BA95C9F712C0B13081F09FD0B1E04A
:1009700008959CC0672F782F8827B85F39F0B93F5A
:10098000CCF3869577956795B395D9F73EF4909516
:100990008095709561957F4F8F4F9F4F0895E89494
:1009A00009C097FB3EF490958095709561957F4FB7
:1009B0008F4F9F4F9923A9F0F92F96E9BB27939565
:1009C000F695879577956795B795F111F8CFFAF475
:1009D000BB0F11F460FF1BC06F5F7F4F8F4F9F4FA6
:1009E00016C0882311F096E911C0772321F09EE804
:1009F000872F762F05C0662371F096E8862F70E06A
:100A000060E02AF09A95660F771F881FDAF7880F43
:100A10009695879597F9089597F99F6780E870E014
:100A200060E008959FEF80EC089500240A94161664
:100A3000170618060906089500240A9412161306CC
:100A4000140605060895092E0394000C11F488235A
:100A500052F0BB0F40F4BF2B11F460FF04C06F5F76
:100A60007F4F8F4F9F4F089557FD9058440F551F4C
:100A700059F05F3F71F04795880F97FB991F61F020
:100A80009F3F79F087950895121613061406551F97
:100A9000F2CF4695F1DF08C0161617061806991F03
:100AA000F1CF86957105610508940895E894BB27F8
:100AB00066277727CB0197F908950BD0C4CFB5DF10
:100AC00028F0BADF18F0952309F0A6CFABCF112498
:100AD000EECFCADFA0F3959FD1F3950F50E0551FDD
:100AE000629FF001729FBB27F00DB11D639FAA2783
:100AF000F00DB11DAA1F649F6627B00DA11D661FD2
:100B0000829F2227B00DA11D621F739FB00DA11DF2
:100B1000621F839FA00D611D221F749F3327A00DAC
:100B2000611D231F849F600D211D822F762F6A2F48
:100B300011249F5750408AF0E1F088234AF0EE0FCD
:100B4000FF1FBB1F661F771F881F91505040A9F7DA
:100B50009E3F510570F060CFAACF5F3FECF3983E07
:100B6000DCF3869577956795B795F795E7959F5F41
:100B7000C1F7FE2B880F911D9695879597F90895DB
:100B8000FA01EE0FFF1F30962105310599F161152D
:100B9000710561F48038BFE39B0749F16894903890
:100BA000810561F08038BFEF9B0741F0992342F542
:100BB000FF3FE1053105210511F1E8940894E7951F
:100BC000D901AA2329F4AB2FBE2FF85FD0F310C0B0
:100BD000FF5F70F4A695E0F7F73950F019F0FF3A8F
:100BE00038F49F779F930CD00F9007FC905808958E
:100BF0003EF018CF60E070E080E89FE308954FE793
:100C00009F775F934F933F932F939ED02F913F9168
:100C10004F915F9152DF05C019F40EF0FDCE46CF23
:100C200001CF2ADFC8F39638C0F707F80F92E8948F
:100C30002BE33AEA48EB5FE74EDF0F920F920F92F9
:100C40004DB75EB70F92C0D0EEE4F0E016D04F91F2
:100C50005F91EF91FF91E595EE1FFF1F49F0FE5761
:100C6000E0684427EE0F441FFA95E1F74195550BD4
:100C700032D00F9007FE26C00895DF93CF931F93C5
:100C80000F93FF92EF92DF927B018C01689405C075
:100C9000DA2EEF011EDFFE01E894A5912591359132
:100CA00045915591AEF3EF01F6DDFE019701A801E4
:100CB000DA9479F7DF90EF90FF900F911F91CF9129
:100CC000DF9108959B01AC0160E070E080E89FE354
:100CD000AEC0A2CE14C1D0DEE8F39923D9F3940FAD
:100CE000511DBBF39150504094F059F0882332F0DD
:100CF000660F771F881F91505040C1F79E3F5105E6
:100D000044F7880F911D9695879597F908955F3F51
:100D1000ACF0983E9CF0BB27869577956795B79584
:100D200008F4B1609395C1F7BB0F58F711F460FF59
:100D3000E8CF6F5F7F4F8F4F9F4FE3CFB8CE0EF05E
:100D4000DEC070CE689468CE97DEC8F39923D1F3E5
:100D5000C6F3DF93CF931F930F93FF92C92FDD2725
:100D600088232AF02197660F771F881FDAF720E083
:100D700030E040E85FEB9FE3883920F0803E30F0C0
:100D800021968F7777DDE6E7F0E003C073DDE3EAD5
:100D9000F0E073DF8B01BE01EC01FB2E6F57710990
:100DA0007595771F880B990BFCDD28E132E741E34D
:100DB0005FE38FDEAF2D9801AE01FF900F911F9181
:100DC000CF91DF9168DD3FCEFA01DC01AA0FBB1F96
:100DD0009B01AC01BF5728F42227332744275078C2
:100DE0001FC0B75188F4AB2F00244695379527953F
:100DF000011CA395D2F3002069F0220F331F441F7A
:100E0000B395DAF30DD035CD61307105A0E88A07CE
:100E1000B94630F49B01AC01662777278827907884
:100E2000309621F0208331834283538308950CD080
:100E30000ACE02DE40F0F9DD30F021F45F3F19F018
:100E4000EBCD511134CEEECD0FDE98F39923C9F3DB
:100E50005523B1F3951B550BBB27AA2762177307C0
:100E6000840738F09F5F5F4F220F331F441FAA1F74
:100E7000A9F333D00E2E3AF0E0E830D09150504034
:100E8000E695001CCAF729D0FE2F27D0660F771FE2
:100E9000881FBB1F261737074807AB07B0E809F0C4
:100EA000BB0B802DBF01FF2793585F4F2AF09E3F59
:100EB000510568F0B1CDFBCD5F3FECF3983EDCF31C
:100EC000869577956795B795F7959F5FC9F7880FD2
:100ED000911D9695879597F90895E1E0660F771F24
:100EE000881FBB1F621773078407BA0720F0621BB5
:100EF000730B840BBA0BEE1F88F7E09508959F3FA4
:100F000031F0915020F4879577956795B795880FC4
:100F1000911D9695879597F90895FC018827992743
:100F2000E89421912032E9F3293010F02E30C8F3F3
:100F30002B3239F02D3231F4689403C02AD0820F5D
:100F4000911D219120532A30C8F31EF4909581956C
:100F50009F4F0895FB019F01E8944230BCF0453259
:100F6000ACF44A3029F497FB1EF4909581959F4F7D
:100F7000642F77276ADC805D8A330CF0895D81936A
:100F8000CB010097A9F716F45DE251931082C901D5
:100F900008C07AE0979F902D879F802D910D112496
:100FA0000895DC01FC01672F71917723E1F73297F7
:100FB00004C07C916D9370836291AE17BF07C8F334
:060FC0000895F894FFCF34
:100FC6006C6170657200626F626F2079756B006D7F
:100FD6006172692D6D617269006B69746120626F5F
:100FE600626F007365656D7320676F6F642C0A0D01
:040FF60000200000D7
:00000001FF
